{
  "contractName": "RealEstate",
  "abi": [
    {
      "inputs": [
        {
          "internalType": "address payable",
          "name": "_owner",
          "type": "address"
        },
        {
          "internalType": "address",
          "name": "_factory",
          "type": "address"
        },
        {
          "internalType": "bytes32",
          "name": "_name",
          "type": "bytes32"
        }
      ],
      "payable": false,
      "stateMutability": "nonpayable",
      "type": "constructor"
    },
    {
      "constant": true,
      "inputs": [],
      "name": "factory",
      "outputs": [
        {
          "internalType": "address",
          "name": "",
          "type": "address"
        }
      ],
      "payable": false,
      "stateMutability": "view",
      "type": "function"
    },
    {
      "constant": true,
      "inputs": [],
      "name": "name",
      "outputs": [
        {
          "internalType": "bytes32",
          "name": "",
          "type": "bytes32"
        }
      ],
      "payable": false,
      "stateMutability": "view",
      "type": "function"
    },
    {
      "constant": true,
      "inputs": [],
      "name": "owner",
      "outputs": [
        {
          "internalType": "address payable",
          "name": "",
          "type": "address"
        }
      ],
      "payable": false,
      "stateMutability": "view",
      "type": "function"
    },
    {
      "constant": true,
      "inputs": [],
      "name": "renting",
      "outputs": [
        {
          "internalType": "contract RentContract",
          "name": "",
          "type": "address"
        }
      ],
      "payable": false,
      "stateMutability": "view",
      "type": "function"
    },
    {
      "constant": false,
      "inputs": [
        {
          "internalType": "address",
          "name": "receiver",
          "type": "address"
        }
      ],
      "name": "transfert",
      "outputs": [],
      "payable": false,
      "stateMutability": "nonpayable",
      "type": "function"
    },
    {
      "constant": false,
      "inputs": [
        {
          "internalType": "uint256",
          "name": "price",
          "type": "uint256"
        },
        {
          "internalType": "uint256",
          "name": "downPayment",
          "type": "uint256"
        }
      ],
      "name": "rent",
      "outputs": [],
      "payable": false,
      "stateMutability": "nonpayable",
      "type": "function"
    },
    {
      "constant": false,
      "inputs": [],
      "name": "removeRent",
      "outputs": [],
      "payable": false,
      "stateMutability": "nonpayable",
      "type": "function"
    },
    {
      "constant": true,
      "inputs": [],
      "name": "getOwner",
      "outputs": [
        {
          "internalType": "address",
          "name": "",
          "type": "address"
        }
      ],
      "payable": false,
      "stateMutability": "view",
      "type": "function"
    },
    {
      "constant": true,
      "inputs": [],
      "name": "getRenting",
      "outputs": [
        {
          "internalType": "contract RentContract",
          "name": "",
          "type": "address"
        }
      ],
      "payable": false,
      "stateMutability": "view",
      "type": "function"
    },
    {
      "constant": true,
      "inputs": [],
      "name": "getName",
      "outputs": [
        {
          "internalType": "bytes32",
          "name": "",
          "type": "bytes32"
        }
      ],
      "payable": false,
      "stateMutability": "view",
      "type": "function"
    }
  ],
  "bytecode": "0x608060405234801561001057600080fd5b506040516116cd3803806116cd8339818101604052606081101561003357600080fd5b810190808051906020019092919080519060200190929190805190602001909291905050508173ffffffffffffffffffffffffffffffffffffffff163373ffffffffffffffffffffffffffffffffffffffff161461009057600080fd5b826000806101000a81548173ffffffffffffffffffffffffffffffffffffffff021916908373ffffffffffffffffffffffffffffffffffffffff16021790555081600160006101000a81548173ffffffffffffffffffffffffffffffffffffffff021916908373ffffffffffffffffffffffffffffffffffffffff160217905550806002819055505050506115a38061012a6000396000f3fe608060405234801561001057600080fd5b506004361061009e5760003560e01c8063893d20e811610066578063893d20e8146101655780638da5cb5b146101af578063b26215da146101f9578063c45a015514610243578063d00833c11461028d5761009e565b806306fdde03146100a357806317d7de7c146100c157806321d0af11146100df5780633920e63214610123578063783a112b1461012d575b600080fd5b6100ab6102d7565b6040518082815260200191505060405180910390f35b6100c96102dd565b6040518082815260200191505060405180910390f35b610121600480360360208110156100f557600080fd5b81019080803573ffffffffffffffffffffffffffffffffffffffff1690602001909291905050506102e7565b005b61012b61038c565b005b6101636004803603604081101561014357600080fd5b810190808035906020019092919080359060200190929190505050610603565b005b61016d6108b7565b604051808273ffffffffffffffffffffffffffffffffffffffff1673ffffffffffffffffffffffffffffffffffffffff16815260200191505060405180910390f35b6101b76108e0565b604051808273ffffffffffffffffffffffffffffffffffffffff1673ffffffffffffffffffffffffffffffffffffffff16815260200191505060405180910390f35b610201610905565b604051808273ffffffffffffffffffffffffffffffffffffffff1673ffffffffffffffffffffffffffffffffffffffff16815260200191505060405180910390f35b61024b61092f565b604051808273ffffffffffffffffffffffffffffffffffffffff1673ffffffffffffffffffffffffffffffffffffffff16815260200191505060405180910390f35b610295610955565b604051808273ffffffffffffffffffffffffffffffffffffffff1673ffffffffffffffffffffffffffffffffffffffff16815260200191505060405180910390f35b60025481565b6000600254905090565b600160009054906101000a900473ffffffffffffffffffffffffffffffffffffffff1673ffffffffffffffffffffffffffffffffffffffff163373ffffffffffffffffffffffffffffffffffffffff161461034157600080fd5b61034961038c565b806000806101000a81548173ffffffffffffffffffffffffffffffffffffffff021916908373ffffffffffffffffffffffffffffffffffffffff16021790555050565b6000809054906101000a900473ffffffffffffffffffffffffffffffffffffffff1673ffffffffffffffffffffffffffffffffffffffff163373ffffffffffffffffffffffffffffffffffffffff1614806104345750600160009054906101000a900473ffffffffffffffffffffffffffffffffffffffff1673ffffffffffffffffffffffffffffffffffffffff163373ffffffffffffffffffffffffffffffffffffffff16145b61043d57600080fd5b600073ffffffffffffffffffffffffffffffffffffffff16600360009054906101000a900473ffffffffffffffffffffffffffffffffffffffff1673ffffffffffffffffffffffffffffffffffffffff161461060157600360009054906101000a900473ffffffffffffffffffffffffffffffffffffffff1673ffffffffffffffffffffffffffffffffffffffff16631401c5f96040518163ffffffff1660e01b815260040160206040518083038186803b1580156104fb57600080fd5b505afa15801561050f573d6000803e3d6000fd5b505050506040513d602081101561052557600080fd5b8101908080519060200190929190505050156105be57600360009054906101000a900473ffffffffffffffffffffffffffffffffffffffff1673ffffffffffffffffffffffffffffffffffffffff1663d75f928e6040518163ffffffff1660e01b8152600401600060405180830381600087803b1580156105a557600080fd5b505af11580156105b9573d6000803e3d6000fd5b505050505b6000600360006101000a81548173ffffffffffffffffffffffffffffffffffffffff021916908373ffffffffffffffffffffffffffffffffffffffff1602179055505b565b6000809054906101000a900473ffffffffffffffffffffffffffffffffffffffff1673ffffffffffffffffffffffffffffffffffffffff163373ffffffffffffffffffffffffffffffffffffffff161461065c57600080fd5b600073ffffffffffffffffffffffffffffffffffffffff16600360009054906101000a900473ffffffffffffffffffffffffffffffffffffffff1673ffffffffffffffffffffffffffffffffffffffff161415801561075a5750600360009054906101000a900473ffffffffffffffffffffffffffffffffffffffff1673ffffffffffffffffffffffffffffffffffffffff16631401c5f96040518163ffffffff1660e01b815260040160206040518083038186803b15801561071e57600080fd5b505afa158015610732573d6000803e3d6000fd5b505050506040513d602081101561074857600080fd5b81019080805190602001909291905050505b156107e257600360009054906101000a900473ffffffffffffffffffffffffffffffffffffffff1673ffffffffffffffffffffffffffffffffffffffff1663d75f928e6040518163ffffffff1660e01b8152600401600060405180830381600087803b1580156107c957600080fd5b505af11580156107dd573d6000803e3d6000fd5b505050505b6000809054906101000a900473ffffffffffffffffffffffffffffffffffffffff1682826040516108129061097b565b808473ffffffffffffffffffffffffffffffffffffffff1673ffffffffffffffffffffffffffffffffffffffff1681526020018381526020018281526020019350505050604051809103906000f080158015610872573d6000803e3d6000fd5b50600360006101000a81548173ffffffffffffffffffffffffffffffffffffffff021916908373ffffffffffffffffffffffffffffffffffffffff1602179055505050565b60008060009054906101000a900473ffffffffffffffffffffffffffffffffffffffff16905090565b6000809054906101000a900473ffffffffffffffffffffffffffffffffffffffff1681565b6000600360009054906101000a900473ffffffffffffffffffffffffffffffffffffffff16905090565b600160009054906101000a900473ffffffffffffffffffffffffffffffffffffffff1681565b600360009054906101000a900473ffffffffffffffffffffffffffffffffffffffff1681565b610be6806109898339019056fe6080604052604051610be6380380610be68339818101604052606081101561002657600080fd5b81019080805190602001909291908051906020019092919080519060200190929190505050826000806101000a81548173ffffffffffffffffffffffffffffffffffffffff021916908373ffffffffffffffffffffffffffffffffffffffff16021790555081600281905550806003819055506000600560006101000a81548160ff021916908315150217905550505050610b20806100c66000396000f3fe6080604052600436106101145760003560e01c806385ef4905116100a0578063aafc466611610064578063aafc4666146103a9578063b0a0468a146103d4578063d6dd04f7146103ff578063d75f928e1461042a578063f5a3182b1461044157610114565b806385ef4905146102f35780638cbea8ea1461031e57806398d5fdca14610349578063a035b1fe14610374578063a709c4fe1461039f57610114565b80632f99abe4116100e75780632f99abe414610225578063355071451461025057806356f504731461025a57806361e3a9591461028557806380c5814d146102dc57610114565b80631401c5f9146101195780631918629c146101485780631e36586f1461019f5780632ee06718146101f6575b600080fd5b34801561012557600080fd5b5061012e610498565b604051808215151515815260200191505060405180910390f35b34801561015457600080fd5b5061015d6104ab565b604051808273ffffffffffffffffffffffffffffffffffffffff1673ffffffffffffffffffffffffffffffffffffffff16815260200191505060405180910390f35b3480156101ab57600080fd5b506101b46104d5565b604051808273ffffffffffffffffffffffffffffffffffffffff1673ffffffffffffffffffffffffffffffffffffffff16815260200191505060405180910390f35b34801561020257600080fd5b5061020b6104fb565b604051808215151515815260200191505060405180910390f35b34801561023157600080fd5b5061023a610512565b6040518082815260200191505060405180910390f35b610258610518565b005b34801561026657600080fd5b5061026f6105b2565b6040518082815260200191505060405180910390f35b34801561029157600080fd5b5061029a6105b8565b604051808273ffffffffffffffffffffffffffffffffffffffff1673ffffffffffffffffffffffffffffffffffffffff16815260200191505060405180910390f35b3480156102e857600080fd5b506102f16105e1565b005b3480156102ff57600080fd5b50610308610792565b6040518082815260200191505060405180910390f35b34801561032a57600080fd5b50610333610798565b6040518082815260200191505060405180910390f35b34801561035557600080fd5b5061035e6107a2565b6040518082815260200191505060405180910390f35b34801561038057600080fd5b506103896107ac565b6040518082815260200191505060405180910390f35b6103a76107b2565b005b3480156103b557600080fd5b506103be610838565b6040518082815260200191505060405180910390f35b3480156103e057600080fd5b506103e961083e565b6040518082815260200191505060405180910390f35b34801561040b57600080fd5b5061041461084e565b6040518082815260200191505060405180910390f35b34801561043657600080fd5b5061043f610858565b005b34801561044d57600080fd5b50610456610ac6565b604051808273ffffffffffffffffffffffffffffffffffffffff1673ffffffffffffffffffffffffffffffffffffffff16815260200191505060405180910390f35b600560009054906101000a900460ff1681565b6000600160009054906101000a900473ffffffffffffffffffffffffffffffffffffffff16905090565b600160009054906101000a900473ffffffffffffffffffffffffffffffffffffffff1681565b6000600560009054906101000a900460ff16905090565b60075481565b6003543410806105345750600560009054906101000a900460ff165b1561053e57600080fd5b6001600560006101000a81548160ff02191690831515021790555033600160006101000a81548173ffffffffffffffffffffffffffffffffffffffff021916908373ffffffffffffffffffffffffffffffffffffffff16021790555034600481905550426006819055506000600781905550565b60035481565b60008060009054906101000a900473ffffffffffffffffffffffffffffffffffffffff16905090565b6000809054906101000a900473ffffffffffffffffffffffffffffffffffffffff1673ffffffffffffffffffffffffffffffffffffffff163373ffffffffffffffffffffffffffffffffffffffff161461063a57600080fd5b600560009054906101000a900460ff1661065357600080fd5b60006006544203905060006007548203905081600254026004541115610708576000809054906101000a900473ffffffffffffffffffffffffffffffffffffffff1673ffffffffffffffffffffffffffffffffffffffff166108fc83600254029081150290604051600060405180830381858888f193505050501580156106de573d6000803e3d6000fd5b5081600254026004600082825403925050819055508160076000828254019250508190555061078e565b6000809054906101000a900473ffffffffffffffffffffffffffffffffffffffff1673ffffffffffffffffffffffffffffffffffffffff166108fc6004549081150290604051600060405180830381858888f19350505050158015610771573d6000803e3d6000fd5b506000600560006101000a81548160ff0219169083151502179055505b5050565b60065481565b6000600454905090565b6000600254905090565b60025481565b600160009054906101000a900473ffffffffffffffffffffffffffffffffffffffff1673ffffffffffffffffffffffffffffffffffffffff163373ffffffffffffffffffffffffffffffffffffffff1614158061081c5750600560009054906101000a900460ff16155b1561082657600080fd5b34600460008282540192505081905550565b60045481565b6000600754600654420303905090565b6000600354905090565b600560009054906101000a900460ff1661087157600080fd5b6000809054906101000a900473ffffffffffffffffffffffffffffffffffffffff1673ffffffffffffffffffffffffffffffffffffffff163373ffffffffffffffffffffffffffffffffffffffff1614806109195750600160009054906101000a900473ffffffffffffffffffffffffffffffffffffffff1673ffffffffffffffffffffffffffffffffffffffff163373ffffffffffffffffffffffffffffffffffffffff16145b61092257600080fd5b6000809054906101000a900473ffffffffffffffffffffffffffffffffffffffff1673ffffffffffffffffffffffffffffffffffffffff163373ffffffffffffffffffffffffffffffffffffffff1614156109e757600160009054906101000a900473ffffffffffffffffffffffffffffffffffffffff1673ffffffffffffffffffffffffffffffffffffffff166108fc6004549081150290604051600060405180830381858888f193505050501580156109e1573d6000803e3d6000fd5b50610aa9565b600160009054906101000a900473ffffffffffffffffffffffffffffffffffffffff1673ffffffffffffffffffffffffffffffffffffffff163373ffffffffffffffffffffffffffffffffffffffff161415610aa8576000809054906101000a900473ffffffffffffffffffffffffffffffffffffffff1673ffffffffffffffffffffffffffffffffffffffff166108fc6004549081150290604051600060405180830381858888f19350505050158015610aa6573d6000803e3d6000fd5b505b5b6000600560006101000a81548160ff021916908315150217905550565b6000809054906101000a900473ffffffffffffffffffffffffffffffffffffffff168156fea265627a7a723158202ac73427fabf6b51845e51a68b56263646e4f6f486b52f8acb5ed932dc9df88364736f6c63430005100032a265627a7a7231582001daa383fc53eae2c3795186791f876702b25df883f0dd0f8568df8f692d0be464736f6c63430005100032",
  "source": "// SPDX-License-Identifier: MIT\r\npragma solidity >=0.4.16 <0.8.0; //oldest compatible compiler version\r\n\r\nimport \"./RentContract.sol\";\r\n\r\n\r\ncontract EstateFactory{\r\n    address public owner;\r\n    mapping (address => RealEstate[]) public estateRegistery;\r\n\r\n    //constructor of the contract, sets the owner\r\n    constructor(address _owner) public\r\n    {\r\n        owner = _owner;\r\n    }\r\n\r\n    //creates a real estate with its name and the adress of the owner\r\n    function createEstate(address payable estateOwner, bytes32 name) public\r\n    {\r\n        require(msg.sender == owner);\r\n        RealEstate estate = new RealEstate(estateOwner, address(this), name);\r\n        addEstate(estateOwner, estate);\r\n    }\r\n\r\n    //transfert the ownership of a real estate with its address and the address of the reciever\r\n    function transfertOwnership(address estate, address receiver) public\r\n    {\r\n        require(msg.sender == RealEstate(estate).owner());\r\n        address originalOwner = RealEstate(estate).owner();\r\n        RealEstate(estate).transfert(receiver);\r\n        removeEstate(originalOwner, RealEstate(estate));\r\n        addEstate(receiver, RealEstate(estate));\r\n    }\r\n\r\n    //returns the number of real estates associated to an address\r\n    function getNumberOfEstates(address ownerAddress) external view returns (uint)\r\n    {\r\n        return estateRegistery[ownerAddress].length;\r\n    }\r\n\r\n    //get the real estate of an owner at a specific address\r\n    function getEstateAtNb(address ownerAddress, uint index) external view returns (RealEstate)\r\n    {\r\n        require(index<estateRegistery[ownerAddress].length);\r\n        return estateRegistery[ownerAddress][index];\r\n    }\r\n\r\n    //return the owner of the factory\r\n    function getOwner() external view returns (address)\r\n    {\r\n        return owner;\r\n    }\r\n\r\n    //internal tools\r\n    function addEstate(address ownerAddress, RealEstate estate) private\r\n    {\r\n        estateRegistery[ownerAddress].push(estate);\r\n    }\r\n\r\n    function removeEstate(address ownerAddress, RealEstate estate) private\r\n    {\r\n        bool deleted = false;\r\n        for (uint i = 0; i<estateRegistery[ownerAddress].length-1&&!deleted; i++){\r\n            if (estateRegistery[ownerAddress][i] == estate)\r\n            {\r\n                delete estateRegistery[ownerAddress][i];\r\n                estateRegistery[ownerAddress][i] = estateRegistery[ownerAddress][estateRegistery[ownerAddress].length-1];\r\n                //delete estateRegistery[ownerAddress][estateRegistery[ownerAddress].length-1];\r\n                estateRegistery[ownerAddress].pop();\r\n                deleted = true;\r\n            }\r\n        }\r\n        if (!deleted)\r\n        {\r\n            //delete estateRegistery[ownerAddress][estateRegistery[ownerAddress].length-1];\r\n            estateRegistery[ownerAddress].pop();\r\n        }\r\n    }\r\n\r\n}\r\n\r\ncontract RealEstate{\r\n    address payable public owner; \r\n    address public factory;\r\n    bytes32 public name;\r\n    RentContract public renting;    \r\n    \r\n    //constructor of the contract, sets the owner, the factory and its name\r\n    constructor(address payable _owner, address _factory, bytes32 _name) public\r\n    {\r\n        require(msg.sender == _factory);\r\n        owner = _owner;\r\n        factory = _factory;\r\n        name = _name;\r\n    }\r\n    \r\n    //change the owner of the estate, called by the factory\r\n    function transfert(address receiver) public\r\n    {\r\n        require(msg.sender == factory);\r\n        removeRent();\r\n        owner = address(uint160(receiver));\r\n    }\r\n    \r\n    //create a new rent contract for the estate\r\n    function rent(uint price, uint downPayment) public\r\n    {\r\n        require(msg.sender == owner);\r\n        if(address(renting)!=address(0) && renting.isRenting())\r\n        {\r\n            renting.stopRenting();\r\n        }\r\n        renting = new RentContract(owner, price, downPayment);\r\n    }\r\n\r\n    //clear the rent contract\r\n    function removeRent() public\r\n    {\r\n        require(msg.sender == owner||msg.sender == factory);\r\n        if(address(renting)!=address(0))\r\n        {\r\n            if (renting.isRenting())\r\n            {\r\n                renting.stopRenting();\r\n            }\r\n            renting=RentContract(address(0));\r\n        }\r\n    }\r\n    \r\n    //returns the owner\r\n    function getOwner() external view returns (address)   //view to return a value from the blockchain, pure for a value calculated in the funct\r\n    {\r\n        return owner;\r\n    }\r\n\r\n    //returns the rent contract\r\n    function getRenting() external view returns (RentContract)   //view to return a value from the blockchain, pure for a value calculated in the funct\r\n    {\r\n        return renting;\r\n    }\r\n\r\n    //returns the name of the estate\r\n    function getName() external view returns (bytes32)   //view to return a value from the blockchain, pure for a value calculated in the funct\r\n    {\r\n        return name;\r\n    }\r\n    \r\n}",
  "sourcePath": "C:/Users/alexis.portmann/Documents/P3/project/contracts/EstateFactory.sol",
  "compiler": {
    "name": "solc",
    "version": "0.5.16+commit.9c3226ce.Emscripten.clang"
  },
  "schemaVersion": "3.3.1",
  "updatedAt": "2021-02-02T08:18:45.617Z",
  "devdoc": {
    "methods": {}
  },
  "userdoc": {
    "methods": {}
  }
}