{
  "contractName": "RentContract",
  "abi": [
    {
      "inputs": [
        {
          "internalType": "address payable",
          "name": "_lessor",
          "type": "address"
        },
        {
          "internalType": "uint256",
          "name": "_price",
          "type": "uint256"
        },
        {
          "internalType": "uint256",
          "name": "_downPayment",
          "type": "uint256"
        }
      ],
      "payable": true,
      "stateMutability": "payable",
      "type": "constructor"
    },
    {
      "constant": true,
      "inputs": [],
      "name": "downPayment",
      "outputs": [
        {
          "internalType": "uint256",
          "name": "",
          "type": "uint256"
        }
      ],
      "payable": false,
      "stateMutability": "view",
      "type": "function"
    },
    {
      "constant": true,
      "inputs": [],
      "name": "isRenting",
      "outputs": [
        {
          "internalType": "bool",
          "name": "",
          "type": "bool"
        }
      ],
      "payable": false,
      "stateMutability": "view",
      "type": "function"
    },
    {
      "constant": true,
      "inputs": [],
      "name": "lessee",
      "outputs": [
        {
          "internalType": "address payable",
          "name": "",
          "type": "address"
        }
      ],
      "payable": false,
      "stateMutability": "view",
      "type": "function"
    },
    {
      "constant": true,
      "inputs": [],
      "name": "lessor",
      "outputs": [
        {
          "internalType": "address payable",
          "name": "",
          "type": "address"
        }
      ],
      "payable": false,
      "stateMutability": "view",
      "type": "function"
    },
    {
      "constant": true,
      "inputs": [],
      "name": "monthPayedNb",
      "outputs": [
        {
          "internalType": "uint256",
          "name": "",
          "type": "uint256"
        }
      ],
      "payable": false,
      "stateMutability": "view",
      "type": "function"
    },
    {
      "constant": true,
      "inputs": [],
      "name": "price",
      "outputs": [
        {
          "internalType": "uint256",
          "name": "",
          "type": "uint256"
        }
      ],
      "payable": false,
      "stateMutability": "view",
      "type": "function"
    },
    {
      "constant": true,
      "inputs": [],
      "name": "rentSignDate",
      "outputs": [
        {
          "internalType": "uint256",
          "name": "",
          "type": "uint256"
        }
      ],
      "payable": false,
      "stateMutability": "view",
      "type": "function"
    },
    {
      "constant": true,
      "inputs": [],
      "name": "storedMoney",
      "outputs": [
        {
          "internalType": "uint256",
          "name": "",
          "type": "uint256"
        }
      ],
      "payable": false,
      "stateMutability": "view",
      "type": "function"
    },
    {
      "constant": false,
      "inputs": [],
      "name": "signRenting",
      "outputs": [],
      "payable": true,
      "stateMutability": "payable",
      "type": "function"
    },
    {
      "constant": false,
      "inputs": [],
      "name": "payRent",
      "outputs": [],
      "payable": true,
      "stateMutability": "payable",
      "type": "function"
    },
    {
      "constant": false,
      "inputs": [],
      "name": "askRent",
      "outputs": [],
      "payable": false,
      "stateMutability": "nonpayable",
      "type": "function"
    },
    {
      "constant": false,
      "inputs": [],
      "name": "stopRenting",
      "outputs": [],
      "payable": false,
      "stateMutability": "nonpayable",
      "type": "function"
    },
    {
      "constant": true,
      "inputs": [],
      "name": "getLessor",
      "outputs": [
        {
          "internalType": "address",
          "name": "",
          "type": "address"
        }
      ],
      "payable": false,
      "stateMutability": "view",
      "type": "function"
    },
    {
      "constant": true,
      "inputs": [],
      "name": "getLessee",
      "outputs": [
        {
          "internalType": "address",
          "name": "",
          "type": "address"
        }
      ],
      "payable": false,
      "stateMutability": "view",
      "type": "function"
    },
    {
      "constant": true,
      "inputs": [],
      "name": "getPrice",
      "outputs": [
        {
          "internalType": "uint256",
          "name": "",
          "type": "uint256"
        }
      ],
      "payable": false,
      "stateMutability": "view",
      "type": "function"
    },
    {
      "constant": true,
      "inputs": [],
      "name": "getIsRenting",
      "outputs": [
        {
          "internalType": "bool",
          "name": "",
          "type": "bool"
        }
      ],
      "payable": false,
      "stateMutability": "view",
      "type": "function"
    },
    {
      "constant": true,
      "inputs": [],
      "name": "getStoredMoney",
      "outputs": [
        {
          "internalType": "uint256",
          "name": "",
          "type": "uint256"
        }
      ],
      "payable": false,
      "stateMutability": "view",
      "type": "function"
    },
    {
      "constant": true,
      "inputs": [],
      "name": "getDownPayment",
      "outputs": [
        {
          "internalType": "uint256",
          "name": "",
          "type": "uint256"
        }
      ],
      "payable": false,
      "stateMutability": "view",
      "type": "function"
    },
    {
      "constant": true,
      "inputs": [],
      "name": "getMonthNotClaimed",
      "outputs": [
        {
          "internalType": "uint256",
          "name": "",
          "type": "uint256"
        }
      ],
      "payable": false,
      "stateMutability": "view",
      "type": "function"
    }
  ],
  "bytecode": "0x6080604052604051610be6380380610be68339818101604052606081101561002657600080fd5b81019080805190602001909291908051906020019092919080519060200190929190505050826000806101000a81548173ffffffffffffffffffffffffffffffffffffffff021916908373ffffffffffffffffffffffffffffffffffffffff16021790555081600281905550806003819055506000600560006101000a81548160ff021916908315150217905550505050610b20806100c66000396000f3fe6080604052600436106101145760003560e01c806385ef4905116100a0578063aafc466611610064578063aafc4666146103a9578063b0a0468a146103d4578063d6dd04f7146103ff578063d75f928e1461042a578063f5a3182b1461044157610114565b806385ef4905146102f35780638cbea8ea1461031e57806398d5fdca14610349578063a035b1fe14610374578063a709c4fe1461039f57610114565b80632f99abe4116100e75780632f99abe414610225578063355071451461025057806356f504731461025a57806361e3a9591461028557806380c5814d146102dc57610114565b80631401c5f9146101195780631918629c146101485780631e36586f1461019f5780632ee06718146101f6575b600080fd5b34801561012557600080fd5b5061012e610498565b604051808215151515815260200191505060405180910390f35b34801561015457600080fd5b5061015d6104ab565b604051808273ffffffffffffffffffffffffffffffffffffffff1673ffffffffffffffffffffffffffffffffffffffff16815260200191505060405180910390f35b3480156101ab57600080fd5b506101b46104d5565b604051808273ffffffffffffffffffffffffffffffffffffffff1673ffffffffffffffffffffffffffffffffffffffff16815260200191505060405180910390f35b34801561020257600080fd5b5061020b6104fb565b604051808215151515815260200191505060405180910390f35b34801561023157600080fd5b5061023a610512565b6040518082815260200191505060405180910390f35b610258610518565b005b34801561026657600080fd5b5061026f6105b2565b6040518082815260200191505060405180910390f35b34801561029157600080fd5b5061029a6105b8565b604051808273ffffffffffffffffffffffffffffffffffffffff1673ffffffffffffffffffffffffffffffffffffffff16815260200191505060405180910390f35b3480156102e857600080fd5b506102f16105e1565b005b3480156102ff57600080fd5b50610308610792565b6040518082815260200191505060405180910390f35b34801561032a57600080fd5b50610333610798565b6040518082815260200191505060405180910390f35b34801561035557600080fd5b5061035e6107a2565b6040518082815260200191505060405180910390f35b34801561038057600080fd5b506103896107ac565b6040518082815260200191505060405180910390f35b6103a76107b2565b005b3480156103b557600080fd5b506103be610838565b6040518082815260200191505060405180910390f35b3480156103e057600080fd5b506103e961083e565b6040518082815260200191505060405180910390f35b34801561040b57600080fd5b5061041461084e565b6040518082815260200191505060405180910390f35b34801561043657600080fd5b5061043f610858565b005b34801561044d57600080fd5b50610456610ac6565b604051808273ffffffffffffffffffffffffffffffffffffffff1673ffffffffffffffffffffffffffffffffffffffff16815260200191505060405180910390f35b600560009054906101000a900460ff1681565b6000600160009054906101000a900473ffffffffffffffffffffffffffffffffffffffff16905090565b600160009054906101000a900473ffffffffffffffffffffffffffffffffffffffff1681565b6000600560009054906101000a900460ff16905090565b60075481565b6003543410806105345750600560009054906101000a900460ff165b1561053e57600080fd5b6001600560006101000a81548160ff02191690831515021790555033600160006101000a81548173ffffffffffffffffffffffffffffffffffffffff021916908373ffffffffffffffffffffffffffffffffffffffff16021790555034600481905550426006819055506000600781905550565b60035481565b60008060009054906101000a900473ffffffffffffffffffffffffffffffffffffffff16905090565b6000809054906101000a900473ffffffffffffffffffffffffffffffffffffffff1673ffffffffffffffffffffffffffffffffffffffff163373ffffffffffffffffffffffffffffffffffffffff161461063a57600080fd5b600560009054906101000a900460ff1661065357600080fd5b60006006544203905060006007548203905081600254026004541115610708576000809054906101000a900473ffffffffffffffffffffffffffffffffffffffff1673ffffffffffffffffffffffffffffffffffffffff166108fc83600254029081150290604051600060405180830381858888f193505050501580156106de573d6000803e3d6000fd5b5081600254026004600082825403925050819055508160076000828254019250508190555061078e565b6000809054906101000a900473ffffffffffffffffffffffffffffffffffffffff1673ffffffffffffffffffffffffffffffffffffffff166108fc6004549081150290604051600060405180830381858888f19350505050158015610771573d6000803e3d6000fd5b506000600560006101000a81548160ff0219169083151502179055505b5050565b60065481565b6000600454905090565b6000600254905090565b60025481565b600160009054906101000a900473ffffffffffffffffffffffffffffffffffffffff1673ffffffffffffffffffffffffffffffffffffffff163373ffffffffffffffffffffffffffffffffffffffff1614158061081c5750600560009054906101000a900460ff16155b1561082657600080fd5b34600460008282540192505081905550565b60045481565b6000600754600654420303905090565b6000600354905090565b600560009054906101000a900460ff1661087157600080fd5b6000809054906101000a900473ffffffffffffffffffffffffffffffffffffffff1673ffffffffffffffffffffffffffffffffffffffff163373ffffffffffffffffffffffffffffffffffffffff1614806109195750600160009054906101000a900473ffffffffffffffffffffffffffffffffffffffff1673ffffffffffffffffffffffffffffffffffffffff163373ffffffffffffffffffffffffffffffffffffffff16145b61092257600080fd5b6000809054906101000a900473ffffffffffffffffffffffffffffffffffffffff1673ffffffffffffffffffffffffffffffffffffffff163373ffffffffffffffffffffffffffffffffffffffff1614156109e757600160009054906101000a900473ffffffffffffffffffffffffffffffffffffffff1673ffffffffffffffffffffffffffffffffffffffff166108fc6004549081150290604051600060405180830381858888f193505050501580156109e1573d6000803e3d6000fd5b50610aa9565b600160009054906101000a900473ffffffffffffffffffffffffffffffffffffffff1673ffffffffffffffffffffffffffffffffffffffff163373ffffffffffffffffffffffffffffffffffffffff161415610aa8576000809054906101000a900473ffffffffffffffffffffffffffffffffffffffff1673ffffffffffffffffffffffffffffffffffffffff166108fc6004549081150290604051600060405180830381858888f19350505050158015610aa6573d6000803e3d6000fd5b505b5b6000600560006101000a81548160ff021916908315150217905550565b6000809054906101000a900473ffffffffffffffffffffffffffffffffffffffff168156fea265627a7a723158202ac73427fabf6b51845e51a68b56263646e4f6f486b52f8acb5ed932dc9df88364736f6c63430005100032",
  "source": "// SPDX-License-Identifier: MIT\npragma solidity >=0.4.16 <0.8.0; //oldest compatible compiler version\n\n\ncontract RentContract{\n    address payable public lessor;    //celui qui loue l'apart a qq1\n    address payable public lessee; //locataire\n    uint public price;  //le prix par mois\n    uint public downPayment;  //la caution\n    uint public storedMoney;  //l'argent accumulé par le locataire\n    bool public isRenting;  //ya-t-il un locataire?\n    uint public rentSignDate;  //date de signature de la location en cours\n    uint public monthPayedNb;  //nombre de mois qui ont été payés dans la location actuelle\n            \n    //constructor of the contract, price in wei\n    constructor(address payable _lessor, uint _price, uint _downPayment) public payable    \n    {\n        lessor = _lessor;\n        price = _price;\n        downPayment = _downPayment;\n        isRenting = false;\n    }\n    \n    //allows an address to sign the rent\n    function signRenting() public payable\n    {\n        if (msg.value < downPayment||isRenting)\n        {\n            revert();       //annule la transaction\n        }\n        isRenting = true;\n        lessee = msg.sender;\n        storedMoney = msg.value;\n        rentSignDate = block.timestamp;\n        monthPayedNb = 0;\n    }\n    \n    //allows the lessee to stock ethers on the contract for the rent\n    function payRent() public payable\n    {\n        if (msg.sender != lessee || !isRenting)\n        {\n            revert();\n        }\n        storedMoney += msg.value;\n    }\n    \n    //allows the lessor to claim his rent, break the contract if insufficent funds\n    function askRent() public\n    {\n        require(msg.sender == lessor);\n        require(isRenting);\n         uint monthToPay = block.timestamp - rentSignDate; //nombre de secondes depuis la signature\n            uint monthNotPaid = monthToPay - monthPayedNb;\n            if (storedMoney > price*monthToPay)\n            {\n                lessor.transfer(price*monthToPay);\n                storedMoney -= price*monthToPay;\n                monthPayedNb += monthToPay;\n            }\n            else\n            {\n                lessor.transfer(storedMoney);\n                isRenting = false;\n            }\n    }\n\n    //allows lessor and lesse to break the contract, remaining funds sent to the other party\n    function stopRenting() public\n    {\n        require(isRenting);\n        require(msg.sender == lessor || msg.sender == lessee);\n        if (msg.sender == lessor)\n        {\n            lessee.transfer(storedMoney);\n        }\n        else if (msg.sender == lessee)\n        {\n            lessor.transfer(storedMoney);\n        }\n        isRenting = false;\n    }\n\n    //returns the lessor\n    function getLessor() external view returns (address)\n    {\n        return lessor;\n    }\n    \n    //returns the lessee\n    function getLessee() external view returns (address)\n    {\n        return lessee;\n    }\n\n    //returns the price\n    function getPrice() external view returns (uint)\n    {\n        return price;\n    }\n\n    //returns the rent\n    function getIsRenting() external view returns (bool)\n    {\n        return isRenting;\n    }\n\n    //returns the stored money\n    function getStoredMoney() external view returns (uint)\n    {\n        return storedMoney;\n    }\n\n    //returns the down payment value\n    function getDownPayment() external view returns (uint)\n    {\n        return downPayment;\n    }\n\n    //calculate and returns the months of rent not claimed by the owner\n    function getMonthNotClaimed() external view returns (uint)\n    {\n        return block.timestamp - rentSignDate - monthPayedNb;\n    }\n}",
  "sourcePath": "C:\\Users\\alexis.portmann\\Documents\\P3\\project\\contracts\\RentContract.sol",
  "compiler": {
    "name": "solc",
    "version": "0.5.16+commit.9c3226ce.Emscripten.clang"
  },
  "schemaVersion": "3.3.1",
  "updatedAt": "2021-02-02T10:24:58.258Z",
  "networkType": "ethereum",
  "devdoc": {
    "methods": {}
  },
  "userdoc": {
    "methods": {}
  }
}